{
  "contractName": "Attack",
  "abi": [
    {
      "anonymous": false,
      "inputs": [
        {
          "indexed": false,
          "internalType": "address",
          "name": "addr",
          "type": "address"
        },
        {
          "indexed": false,
          "internalType": "bytes",
          "name": "bytecode",
          "type": "bytes"
        },
        {
          "indexed": false,
          "internalType": "bytes",
          "name": "s",
          "type": "bytes"
        }
      ],
      "name": "Result",
      "type": "event"
    },
    {
      "inputs": [
        {
          "internalType": "bytes",
          "name": "bytecode",
          "type": "bytes"
        }
      ],
      "name": "deployBytecode",
      "outputs": [
        {
          "internalType": "address",
          "name": "",
          "type": "address"
        }
      ],
      "stateMutability": "nonpayable",
      "type": "function"
    }
  ],
  "bytecode": "0x608060405234801561001057600080fd5b506103ee806100206000396000f3fe608060405234801561001057600080fd5b506004361061002b5760003560e01c806302c0fba414610030575b600080fd5b61004a60048036038101906100459190610246565b610060565b60405161005791906102d0565b60405180910390f35b600080600083519050836000528060a06000f091507f1b8d6abf318efe0c693cab0c3bb4368fcd8217b90a7e68e34dbe6e7de0cf303f828373ffffffffffffffffffffffffffffffffffffffff16803b806020016040519081016040528181526000908060200190933c866040516100da93929190610373565b60405180910390a18192505050919050565b6000604051905090565b600080fd5b600080fd5b600080fd5b600080fd5b6000601f19601f8301169050919050565b7f4e487b7100000000000000000000000000000000000000000000000000000000600052604160045260246000fd5b6101538261010a565b810181811067ffffffffffffffff821117156101725761017161011b565b5b80604052505050565b60006101856100ec565b9050610191828261014a565b919050565b600067ffffffffffffffff8211156101b1576101b061011b565b5b6101ba8261010a565b9050602081019050919050565b82818337600083830152505050565b60006101e96101e484610196565b61017b565b90508281526020810184848401111561020557610204610105565b5b6102108482856101c7565b509392505050565b600082601f83011261022d5761022c610100565b5b813561023d8482602086016101d6565b91505092915050565b60006020828403121561025c5761025b6100f6565b5b600082013567ffffffffffffffff81111561027a576102796100fb565b5b61028684828501610218565b91505092915050565b600073ffffffffffffffffffffffffffffffffffffffff82169050919050565b60006102ba8261028f565b9050919050565b6102ca816102af565b82525050565b60006020820190506102e560008301846102c1565b92915050565b600081519050919050565b600082825260208201905092915050565b60005b8381101561032557808201518184015260208101905061030a565b83811115610334576000848401525b50505050565b6000610345826102eb565b61034f81856102f6565b935061035f818560208601610307565b6103688161010a565b840191505092915050565b600060608201905061038860008301866102c1565b818103602083015261039a818561033a565b905081810360408301526103ae818461033a565b905094935050505056fea2646970667358221220a5e2599227b443093688a4851c30cbabfcc0be3d1e267d0b3b9d4cf50845590264736f6c634300080d0033",
  "immutableReferences": {},
  "source": "// SPDX-License-Identifier: MIT\npragma solidity ^0.8.13;\n\ncontract Attack {\n    event Result(address addr, bytes bytecode, bytes s);\n\n    function deployBytecode(bytes memory bytecode) public returns (address) {\n        address addr;\n        uint256 length = bytecode.length;\n        assembly {\n            mstore(0x0, bytecode)\n            addr := create(0, 0xa0, length)\n        }\n        emit Result(addr, addr.code, bytecode);\n        return addr;\n   }\n\n}\n",
  "sourcePath": "/Users/changwan.park/Documents/write-up/2022/Lake/QuinEVM/contracts/Attack.sol",
  "compiler": {
    "name": "solc",
    "version": "0.8.13+commit.abaa5c0e.Emscripten.clang"
  },
  "schemaVersion": "3.4.10",
  "updatedAt": "2023-01-15T15:53:57.305Z",
  "networkType": "ethereum",
  "devdoc": {
    "kind": "dev",
    "methods": {},
    "version": 1
  },
  "userdoc": {
    "kind": "user",
    "methods": {},
    "version": 1
  }
}