{
  "contractName": "Contract1",
  "abi": [
    {
      "inputs": [],
      "name": "destruct",
      "outputs": [],
      "stateMutability": "nonpayable",
      "type": "function"
    }
  ],
  "bytecode": "0x6080604052348015600f57600080fd5b5060858061001e6000396000f3fe6080604052348015600f57600080fd5b506004361060285760003560e01c80632b68b9c614602d575b600080fd5b60336035565b005b600073ffffffffffffffffffffffffffffffffffffffff16fffea2646970667358221220d1f3312f140b76909e7968d657c16f437f0dcafd0634aea752eeb316601f0aeb64736f6c634300080d0033",
  "immutableReferences": {},
  "source": "// SPDX-License-Identifier: MIT\npragma solidity ^0.8.13;\n\ncontract Contract1 {\n    function destruct() public {\n        selfdestruct(payable(0));\n    }\n}\n",
  "sourcePath": "/Users/changwan.park/Documents/write-up/2022/Lake/Immutable/contracts/Contract1.sol",
  "compiler": {
    "name": "solc",
    "version": "0.8.13+commit.abaa5c0e.Emscripten.clang"
  },
  "schemaVersion": "3.4.10",
  "updatedAt": "2023-01-18T15:17:42.723Z",
  "devdoc": {
    "kind": "dev",
    "methods": {},
    "version": 1
  },
  "userdoc": {
    "kind": "user",
    "methods": {},
    "version": 1
  }
}