{
  "contractName": "Solution",
  "abi": [
    {
      "inputs": [],
      "name": "contract1",
      "outputs": [
        {
          "internalType": "contract Contract1",
          "name": "",
          "type": "address"
        }
      ],
      "stateMutability": "view",
      "type": "function"
    },
    {
      "inputs": [],
      "name": "contract2",
      "outputs": [
        {
          "internalType": "contract Contract2",
          "name": "",
          "type": "address"
        }
      ],
      "stateMutability": "view",
      "type": "function"
    },
    {
      "inputs": [],
      "name": "deploy1",
      "outputs": [],
      "stateMutability": "nonpayable",
      "type": "function"
    },
    {
      "inputs": [
        {
          "internalType": "bytes",
          "name": "code",
          "type": "bytes"
        }
      ],
      "name": "deploy2",
      "outputs": [],
      "stateMutability": "nonpayable",
      "type": "function"
    },
    {
      "inputs": [],
      "name": "destruct",
      "outputs": [],
      "stateMutability": "nonpayable",
      "type": "function"
    }
  ],
  "bytecode": "0x608060405234801561001057600080fd5b506108a4806100206000396000f3fe608060405234801561001057600080fd5b50600436106100575760003560e01c80632b68b9c61461005c5780633c75415e146100665780634af6b5c2146100705780634c62d88c1461008e578063934e9e82146100ac575b600080fd5b6100646100c8565b005b61006e610162565b005b6100786101cc565b6040516100859190610325565b60405180910390f35b6100966101f2565b6040516100a39190610361565b60405180910390f35b6100c660048036038101906100c191906104d6565b610216565b005b60008054906101000a900473ffffffffffffffffffffffffffffffffffffffff1673ffffffffffffffffffffffffffffffffffffffff16632b68b9c66040518163ffffffff1660e01b8152600401600060405180830381600087803b15801561013057600080fd5b505af1158015610144573d6000803e3d6000fd5b50505050600073ffffffffffffffffffffffffffffffffffffffff16ff5b60405161016e9061028d565b604051809103906000f08015801561018a573d6000803e3d6000fd5b506000806101000a81548173ffffffffffffffffffffffffffffffffffffffff021916908373ffffffffffffffffffffffffffffffffffffffff160217905550565b600160009054906101000a900473ffffffffffffffffffffffffffffffffffffffff1681565b60008054906101000a900473ffffffffffffffffffffffffffffffffffffffff1681565b8060405161022390610299565b61022d91906105a7565b604051809103906000f080158015610249573d6000803e3d6000fd5b50600160006101000a81548173ffffffffffffffffffffffffffffffffffffffff021916908373ffffffffffffffffffffffffffffffffffffffff16021790555050565b60a3806105ca83390190565b6102028061066d83390190565b600073ffffffffffffffffffffffffffffffffffffffff82169050919050565b6000819050919050565b60006102eb6102e66102e1846102a6565b6102c6565b6102a6565b9050919050565b60006102fd826102d0565b9050919050565b600061030f826102f2565b9050919050565b61031f81610304565b82525050565b600060208201905061033a6000830184610316565b92915050565b600061034b826102f2565b9050919050565b61035b81610340565b82525050565b60006020820190506103766000830184610352565b92915050565b6000604051905090565b600080fd5b600080fd5b600080fd5b600080fd5b6000601f19601f8301169050919050565b7f4e487b7100000000000000000000000000000000000000000000000000000000600052604160045260246000fd5b6103e38261039a565b810181811067ffffffffffffffff82111715610402576104016103ab565b5b80604052505050565b600061041561037c565b905061042182826103da565b919050565b600067ffffffffffffffff821115610441576104406103ab565b5b61044a8261039a565b9050602081019050919050565b82818337600083830152505050565b600061047961047484610426565b61040b565b90508281526020810184848401111561049557610494610395565b5b6104a0848285610457565b509392505050565b600082601f8301126104bd576104bc610390565b5b81356104cd848260208601610466565b91505092915050565b6000602082840312156104ec576104eb610386565b5b600082013567ffffffffffffffff81111561050a5761050961038b565b5b610516848285016104a8565b91505092915050565b600081519050919050565b600082825260208201905092915050565b60005b8381101561055957808201518184015260208101905061053e565b83811115610568576000848401525b50505050565b60006105798261051f565b610583818561052a565b935061059381856020860161053b565b61059c8161039a565b840191505092915050565b600060208201905081810360008301526105c1818461056e565b90509291505056fe6080604052348015600f57600080fd5b5060858061001e6000396000f3fe6080604052348015600f57600080fd5b506004361060285760003560e01c80632b68b9c614602d575b600080fd5b60336035565b005b600073ffffffffffffffffffffffffffffffffffffffff16fffea2646970667358221220d1f3312f140b76909e7968d657c16f437f0dcafd0634aea752eeb316601f0aeb64736f6c634300080d0033608060405234801561001057600080fd5b50604051610202380380610202833981810160405281019061003291906101b8565b805160208201f35b6000604051905090565b600080fd5b600080fd5b600080fd5b600080fd5b6000601f19601f8301169050919050565b7f4e487b7100000000000000000000000000000000000000000000000000000000600052604160045260246000fd5b6100a182610058565b810181811067ffffffffffffffff821117156100c0576100bf610069565b5b80604052505050565b60006100d361003a565b90506100df8282610098565b919050565b600067ffffffffffffffff8211156100ff576100fe610069565b5b61010882610058565b9050602081019050919050565b60005b83811015610133578082015181840152602081019050610118565b83811115610142576000848401525b50505050565b600061015b610156846100e4565b6100c9565b90508281526020810184848401111561017757610176610053565b5b610182848285610115565b509392505050565b600082601f83011261019f5761019e61004e565b5b81516101af848260208601610148565b91505092915050565b6000602082840312156101ce576101cd610044565b5b600082015167ffffffffffffffff8111156101ec576101eb610049565b5b6101f88482850161018a565b9150509291505056fea2646970667358221220ed92ea2ed1c171ac1ef24a9d88974e93e66604bfee6d9eb33341a660799d948964736f6c634300080d0033",
  "immutableReferences": {},
  "source": "// SPDX-License-Identifier: MIT\npragma solidity ^0.8.13;\n\nimport \"./Contract1.sol\";\nimport \"./Contract2.sol\";\n\ncontract Solution {\n    Contract1 public contract1;\n    Contract2 public contract2;\n\n    function deploy1() public {\n        contract1 = new Contract1();    \n    }\n\n    function deploy2(bytes memory code) public {\n        contract2 = new Contract2(code);\n    }\n\n    function destruct() public {\n        contract1.destruct();\n        selfdestruct(payable(0));\n    }\n}\n",
  "sourcePath": "/Users/changwan.park/Documents/write-up/2022/Lake/Immutable/contracts/Solution.sol",
  "compiler": {
    "name": "solc",
    "version": "0.8.13+commit.abaa5c0e.Emscripten.clang"
  },
  "schemaVersion": "3.4.10",
  "updatedAt": "2023-01-18T15:50:04.981Z",
  "devdoc": {
    "kind": "dev",
    "methods": {},
    "version": 1
  },
  "userdoc": {
    "kind": "user",
    "methods": {},
    "version": 1
  }
}